:020000040800F2
:10000000200700209D01000877340008A72B000876
:100010007534000835050008733E00080000000034
:10002000000000000000000000000000133900087C
:10003000830500080000000011390008193C000881
:10004000B7010008B7010008B7010008B7010008B0
:10005000B7010008B7010008B7010008B7010008A0
:10006000B7010008B7010008B7010008B701000890
:10007000B7010008B7010008B7010008B701000880
:10008000B7010008B7010008B7010008B701000870
:10009000B7010008B7010008B7010008B701000860
:1000A000B7010008B7010008B7010008B701000850
:1000B000B7010008AD3C000800000000B7010008CF
:1000C000B70100080000000000000000B7010008B0
:1000D00000000000B7010008B7010008B7010008E0
:1000E000B7010008B7010008000000000000000090
:1000F0000000000000000000000000000000000000
:1001000000000000000000000000000000000000EF
:100110000000000000000000B7010008B70100085F
:1001200000000000000000000000000000000000CF
:1001300000000000000000000000000000000000BF
:10014000B7010008B701000800000000B70100086F
:10015000F5030008B7010008B7010008B70100085F
:10016000B7010008B701000800000000000000000F
:10017000000000000000000000000000000000007F
:1001800000000000B7010008DFF80CD000F07AF89A
:1001900000480047794000082007002006488047B3
:1001A00006480047FEE7FEE7FEE7FEE7FEE7FEE75C
:1001B000FEE7FEE7FEE7FEE79D3C00088901000838
:1001C0002DE9F05F0546002092469B46884606468C
:1001D000814640241BE0284641464746224600F01F
:1001E00020F853465A46C01A914110D3114618467A
:1001F000224600F038F82D1A67EB01084F462246D8
:100200000120002100F02FF817EB00094E41201EBD
:10021000A4F10104DFDC484631462A464346BDE8E6
:10022000F09F202A04DB203A21FA02F000217047D7
:1002300021FA02F3D040C2F120029140084319464E
:100240007047D2B201E000F8012B491EFBD2704783
:100250000022F6E710B513460A4604461946FFF792
:10026000F0FF204610BD202A04DB203A00FA02F1FC
:10027000002070479140C2F1200320FA03F3194394
:1002800090407047064C074D06E0E06840F00103DF
:1002900094E8070098471034AC42F6D3FFF778FF94
:1002A0005C4900087C49000830B52849088800EB03
:1002B000800202EB0030312202EB103501F1080020
:1002C00005624A88C369D21A42F3130444618A88DA
:1002D00040F6E4735A433B2303EB1232C260C988F1
:1002E0008368C91A41F3130300210360642D00DA07
:1002F0000162002C00DA4161642A00DAC160002B3F
:1003000000DA01601149036A40390A6A1344A3EB19
:1003100092020A629208426243694A6A1344A3EB5A
:1003200092024A6292088261C3688A6A1344A3EB0C
:1003300092028A62920802610368CA6A1344A3EBBC
:100340009202CA629108416030BD00004000002066
:1003500010B52349234849684268521A22490A6065
:100360008C6804EBC20304EB4202C1E901324FF492
:10037000A024A24200DA8C60B0F90C208C68B4EBA7
:10038000023F01DD14038C6043F30F33038240F21C
:100390001B114182934200DD0282B0F910305022DD
:1003A000502B00DA0282114BDB7903B90282B0F9DB
:1003B000100000EB800040F353020D48026000681B
:1003C0000B4A40080C32106001EB8100C0024FF470
:1003D0002051A1EB203006498031086010BD00009B
:1003E000480000207800002094000020B800002081
:1003F0009C740140024910200860FFF7A9BF00006B
:10040000887401400146406A026C12F0500F03D01C
:10041000806B026B08461047016C41F40071016467
:100420000168C96811F4406F0CD1417E51B9016C6B
:1004300021F480710164016CC90403D4016C41F0A2
:100440000101016400F0B8BA406A016C41F040015A
:100450000164416C41F00401416400F0AFBA406AAC
:1004600000F0ABBA70B504460068816801F0030182
:10047000012926D10168C90723D0816801F00D0147
:10048000012910D1816841F00201816021680320B7
:10049000086000F039FE05460FE000BF00F034FEB2
:1004A000401B022809D9206C40F010002064606CC9
:1004B00040F001006064012070BD20688068C007C2
:1004C000ECD1002070BD000070B504460068816862
:1004D00001F00301012902D10168C90720D1816817
:1004E000104A11420DD1816841F00101816000F094
:1004F0000BFE05460FE000BF00F006FE401B022881
:1005000009D9206C40F010002064606C40F00100BC
:100510006064012070BD20680068C043C007EBD153
:10052000002070BD3F0000800149012088717047A4
:10053000B8000020FEE70000054A016811441422BB
:10054000B1FBF2F1890001640249C1637047000008
:10055000F8FFFDBF0000024030B590F84050012484
:10056000AC40C56B6C60046863604368102B036823
:1005700003D099600068C26030BD9A600068C160B5
:1005800030BD704772B6FEE770B5026800234FF0C9
:10059000A04494B0A24200D1314C009490F83C4069
:1005A000012C1FD0012480F83C40926852074CD4A3
:1005B000009A9268520748D42A4A0D6840F61F7480
:1005C00045B3956890F8306025F4604545EA4635B6
:1005D0004E68354395600568AE6806F00306012E47
:1005E00006D102E0022014B070BD2D68ED0731D1B4
:1005F000009DAD6805F00305012D03D1009D2D6818
:10060000ED0727D10D6889680D439168A1430D431B
:1006100095601FE0916821F46041916001688D68E8
:1006200005F00305012D02D10968C90712D100990F
:10063000896801F00301012903D100990968C907FC
:1006400008D19168A143916004E0016C41F0200160
:1006500001640123002180F83C101846C3E7000024
:100660000001005000030050F0B594B00025009543
:1006700090F83C202E46012A19D0012780F83C70C2
:1006800003689A6852077CD44A681F24052A11D24D
:10069000D3F830C002EB4202520094402CEA040C22
:1006A0000C6894404CEA040CC3F830C035E00220DA
:1006B00014B0F0BD0A2A0FD2D3F834C0521F02EB97
:1006C0004202520094402CEA040C0C6894404CEA1C
:1006D000040CC3F834C020E00F2A0FD2D3F838C07E
:1006E0000A3A02EB4202520094402CEA040C0C68D5
:1006F00094404CEA040CC3F838C00EE0D3F83CC078
:100700000F3A02EB4202520094402CEA040C0C68AF
:1007100094404CEA040CC3F83CC00268936813F0A0
:100720000C0F4FF0070374D1D1F800E0BEF10A0FAF
:1007300010D39469AEF10A0E0EEB4E0C03FA0CFEC8
:1007400024EA0E04D1F808E00EFA0CFE44EA0E0486
:1007500094610FE0D2F814C00EEB4E0403FA04FECD
:100760002CEA0E0CD1F808E00EFA04FE4CEA0E0C4E
:10077000C2F814C002684C69D2F80CC0CCF3C10CAA
:1007800000E0E1E04FEA4C0C04FA0CF4D1F810E080
:10079000DFF810C2BEF1010F42D0BEF1020F4DD002
:1007A000BEF1030F58D0BEF1040F63D0146E91F860
:1007B00000C004F0F844B4EB8C6F03D1146E24F045
:1007C000004414660268546E91F800C004F0F844C6
:1007D000B4EB8C6F03D1546E24F00044546602686D
:1007E000946E91F800C004F0F844B4EB8C6F03D120
:1007F000946E24F0004494660268D46E91F800C0B0
:1008000004F0F844B4EB8C6F03D1D46E24F00044B0
:10081000D4660268946804F00304012C3AD136E0EF
:10082000D2F860E00EEA0C0E91F800C044EA8C6445
:100830004EEA040E4EF000441466EAE7D2F864E093
:100840000EEA0C0E91F800C044EA8C644EEA040EE5
:100850004EF000445466DCE7D2F868E00EEA0C0E75
:1008600091F800C044EA8C644EEA040E4EF0004455
:100870009466CEE7D2F86CE00EEA0C0E91F800C058
:1008800044EA8C644EEA040E4EF00044C0E714685B
:10089000E4075ED1CC68012C06D052F8B03F0C784A
:1008A000A740BB43136020E052F8B04F91F800C05E
:1008B00007FA0CF73C4314600A6804680A2A0AD352
:1008C000A769093A02EB420293409F438B68934029
:1008D0001F43A76109E06769521C02EB4202934083
:1008E0009F438B6893401F43676109682E4A102914
:1008F00004D0112905D0122906D02AE093681B02E2
:1009000004E09368DB0101E093685B02002B20DBCD
:1009100003684FF0A044A34202D1244F009700E0A7
:1009200000949F6807F00307012F02D11F68FF079B
:100930000AD1009F8FB1BF6807F00307012F0CD1C8
:10094000009F3F68FF0708D0016C41F0200101645F
:10095000012580F83C602846AAE6102908D0112914
:100960001AD01229F5D1916841F480019160F0E725
:10097000A342EED1916841F4000191600C490D4A07
:100980000968B1FBF2F101EB8101490000E0491E69
:1009900000910029FBD1DCE7A342DAD1916841F054
:1009A0008071E3E700F0FF83000300500001005076
:1009B000B400002040420F00704770477047006845
:1009C000006C7047F0B54FF0000595B004002F465D
:1009D0002E46009505D0206CC00649D4206C18B175
:1009E00034E0012015B0F0BD6664E664A66484F8C6
:1009F0003C60204600F0DAF820688068C00025D40A
:100A00002046FFF72FFD0546206C00F0100129431A
:100A10001CD1206C20F4885040F002002064206833
:100A2000816821F0405181602068816841F08051E7
:100A30008160584858490068B0FBF1F000EB800035
:100A4000400000E0401E00900028FBD12068816833
:100A5000C90002D5806880000AD5206C20F0020011
:100A600040F010002064606C40F0010060640125DB
:100A7000206C00F0100028437DD120688168490770
:100A80007ED4216C21F4807141F00201216443493C
:100A90004FF0A042904200D1414A0092826802F099
:100AA0000302012A02D10068C00710D1009840B1AA
:100AB000806800F00300012803D100980068C00797
:100AC00005D18868626820F4403010438860D4E91A
:100AD00002100843616B012902D04FF4805200E0FC
:100AE0000022617E42EA4132104394F820203843CC
:100AF000012A0AD1A9B1216C21F0020141F02001A3
:100B00002164616C41F001016164A16A012902D094
:100B1000E26A1143084321688A6812F00C0F08D07A
:100B200013E0A18C1F4A02EB4141014341F48030A4
:100B3000EBE7CA6844F202039A43CA60217E94F844
:100B40003020890341EA420108432168CA68164BF4
:100B50001A400243CA60206901282068016B21F015
:100B60000F0102D1E269521E114301636664206CD9
:100B700020F0020000E003E040F00100206406E005
:100B8000206C20F0020040F010002064012528466F
:100B900028E70000B400002040420F00000300508E
:100BA000000100500000FEFF07C0F0FFF0B587B065
:100BB000064614216846FFF74BFB2F4A376800258D
:100BC000106803242D49401C4FF09043B7F1A04F0B
:100BD00006D02B4EB74234D11060012833D03AE012
:100BE0001060012807D1486940F080504861486989
:100BF00000F080500590486940F400304861486931
:100C0000694600F4003005900F208DE83100184649
:100C100000F09EF91C4C1B48C4E900058020C4E983
:100C2000025040002061800060612020A06100022D
:100C3000E061204600F01AF908B1FFF7A3FCB463A5
:100C4000666207B0F0BD486940F08050486148696D
:100C500000F080500590486940F4003048614869D0
:100C6000694600F40030059010208DE831001846E8
:100C700000F06EF9E5E70000A4000020001002403B
:100C800000010050080002406401002070B50446D5
:100C900000688068400760D494F83C0001280CD0BC
:100CA000012084F83C002046FFF70EFC01004FF0C5
:100CB000000204D084F83C2050E0022070BD206C7B
:100CC00040F60163984340F4807020644FF0A040E8
:100CD000D0F80833DB0602D02368834206D1236CA8
:100CE00023F4801323642368DB6807E0256C45F454
:100CF000801525641A4DAB4208D1C3689B0105D508
:100D0000236C23F4005343F480532364236CDB04EB
:100D100004D5636C23F00603636400E0626484F826
:100D20003C2023681C221A60D0F80823D2060ED07B
:100D3000D0F8082302F01F02052A08D0D0F80823B3
:100D400002F01F02092A02D02268824206D12068DE
:100D5000826842F00402826000E00221084670BD11
:100D6000000100502DE9F04704460068904689468E
:100D7000806840076ED494F83C0001280CD0012014
:100D80004FF0A04684F83C00D6F808034FF0000767
:100D9000C00604D0012507E00220BDE8F087204608
:100DA000FFF792FB050002D084F83C7053E0206C02
:100DB00040F60161884340F480702064D6F808034F
:100DC000C00602D02068B04206D1206C20F480100A
:100DD00020642068C06807E0216C41F48011216420
:100DE0001E49884208D1F068800105D5206C20F4A6
:100DF000005040F480502064206CC00404D5606C26
:100E000020F00600606400E0676484F83C70A16B29
:100E100013488862A16B1348C862A16B124808632B
:100E200021681C2008602068416841F01001416081
:100E30002068C16841F00101C160216843464A460B
:100E40004031A06B00F039F82068816841F004015E
:100E5000816000E0022528469FE700000001005065
:100E6000050400085F0400084904000870B5040088
:100E700021D0022084F821002268116843F6F07026
:100E80008143D4E901031843D4E903352B431843C4
:100E900063691843A3691843E36918430843106062
:100EA0002046FFF749FB0020A063012184F82110B0
:100EB00084F8200070BD012070BD70B5044690F824
:100EC0002000002501280CD0012084F8200094F88F
:100ED00021600020012E06D084F82000022528463B
:100EE00070BD022070BD022684F82160A0632068D6
:100EF000066826F0010606602046FFF72DFBE06A33
:100F000000282068016802D041F00E0106E041F09F
:100F10000A0101602068016821F004010160206875
:100F2000016841F001010160D9E7000070B5044695
:100F300000F0EAF80546601C02D00448007804443A
:100F400000F0E2F8401BA042FAD370BDA8000020D8
:100F50002DE9FC4FDFF884A1002301250AF1040BE1
:100F600003244FF00F0C0BF1040EB0E005FA03F769
:100F70003A406ED04E68012E05D0022E03D0112EBD
:100F800001D0122E17D1D0F808905E0004FA06F8AE
:100F900029EA08090096D1F80C8008FA06F848EA10
:100FA0000908C0F808804668BE430F79C7F30017E8
:100FB0009F4037434760C6684FEA430804FA08F782
:100FC000BE4301978F6807FA08F73743C7604E683A
:100FD000022E01D0122E10D1DE0800EB86060096FC
:100FE000366A5F074FEAD7690CFA09F7BE430F6903
:100FF00007FA09F73743009E37620668019FBE4330
:101000000F7907F0030707FA08F7374307604E68C0
:10101000F6005BD5324EB76947F00107B761B66994
:1010200023F0030706F0010600962E4E3E44B1461B
:10103000B6689F074FEA17780CFA08F7BE43B0F17D
:10104000904F04D0284FB84204D101270DE000276B
:101050000BE03BE0254FB84201D1022705E0244FC9
:10106000B84201D1032700E0052707FA08F7374304
:10107000C9F80870DAF800605746D1F80480964342
:101080005FEAC83800D516433E60DBF800605F4673
:10109000D1F8048096435FEA883800D516433E6055
:1010A000DEF800607746D1F8048096435FEAC828EE
:1010B00000D516433E60094F0C373E68D1F80480D6
:1010C00096435FEA882800D516433E605B1C0E6895
:1010D0003246DE407FF44AAFBDE8FC8F0004014099
:1010E00000100240000001400004004800080048D1
:1010F000000C00480069084000D0012070470AB188
:1011000081617047816270470148806870470000C4
:10111000A8000020F0B590F8C130022B27D090F83D
:10112000C030012B23D0012580F8C050022380F865
:10113000C1300468D4F880330026012919D002296F
:1011400021D004292BD0082935D0072180F8C110DF
:1011500080F8C06090F8C110072938D00168C1F844
:10116000803380F8C15080F8C0600020F0BD0220BC
:10117000F0BD23F4E021136803F4E0230B4351682E
:10118000C4F8BC13E6E723F4601113684FF460174A
:1011900007EAC3030B435168C4F8C013DAE723F02E
:1011A000E07113684FF0E07707EA83130B4351684F
:1011B000C4F8C413CEE723F0606113684FF0606792
:1011C00007EA43230B435168C4F8C813C2E7012060
:1011D000F0BD10B590F8C020012A21D0012280F87E
:1011E000C020022380F8C1304B1C1BD00368D3F809
:1011F000CC4344F00204C3F8CC430368D3F8CC4397
:1012000024F00C040C43C3F8CC430168D1F8CC3370
:1012100043F00103C1F8CC3380F8C120002010BD99
:10122000022010BD0168D1F8CC3323F00203C1F8CD
:10123000CC33EAE770B590F8C130022B3CD090F87F
:10124000C030012B38D0012500F8C05F0223437065
:101250001388948803F4E053C4F308041C431389EF
:101260006FF07E4603F400732343148A04F4804431
:101270001C43938903F400432343948A06EA0444FD
:101280001C43936903F000732343146AD26904F08A
:1012900080441C4302F00042224350F8C03CB82472
:1012A00004EBC1141959054E3140114319514570D1
:1012B00000210170084670BD022070BD0020003C76
:1012C00038B5040054D0022084F8C1000025C4F8C9
:1012D000C450C4F8C850C4F8CC50C4F8D050C4F8B6
:1012E000D450C4F8D850207AC0071BD021492068B8
:1012F000884208D12048816941F0005181618069AC
:1013000000F0005000902168086820F44042208AD4
:1013100000F44040104320F44052A08A00F44050B2
:1013200010430860204600F029F8207A800708D58D
:101330002168086820F44072A08900F440701043CE
:101340000860012084F8C10084F8C0505FF00001FB
:10135000C1EBC10004EB8000491C8561C5610562D9
:1013600045628562C9B205630529F1D9002038BDFF
:10137000012038BD007401400010024008B500682B
:101380000B49884212D10B48816941F000518161BB
:101390008069002200F0005000900121442000F0FC
:1013A000E5FBBDE80840442000F0D2BB08BD0000CA
:1013B0000074014000100240F0B587B004461421CB
:1013C0006846FEF745FF15492068884224D1144835
:1013D000416941F4003141614069022400F4003068
:1013E00005904FF44070CDE9000402AA01200325C6
:1013F0000D2682E861004FF0904769463846FFF7B6
:10140000A7FDA802CDE9000402AA002082E861003D
:1014100069463846FFF79CFD07B0F0BD00740140F7
:101420000010024070B50D460446FFF76DFE0646FB
:1014300007E0681C05D0FFF767FE801BA8420DD8A7
:1014400065B12068D0F88803C043C003F1D40120FF
:1014500084F8C100002084F8C00070BD072084F823
:10146000C100032070BD70B590F8C130022B23D0AD
:10147000022380F8C130052920D08023046803EBC3
:10148000C115635923F007069368334323F0180608
:10149000D368334363519425046805EBC115136881
:1014A00063519824036804EBC11152685A5001211A
:1014B00080F8C110002070BD022070BD036819685B
:1014C00021F007049168214321F01804D1682143D9
:1014D0001960036811685961516802689161E6E713
:1014E0002DE9F04F90F8C140022C25D090F8C04073
:1014F000012C21D04FF0010980F8C090022480F81F
:10150000C14000274FF0070C052918D09C2404EB9C
:10151000C116012A39D08024A8254FF4005A4FF46F
:10152000405B05EBC11504EBC114022A2FD0042A3D
:1015300045D0082A0BD144E00220BDE8F08F012AF3
:101540000AD0022A0CD0042A0ED0082A10D080F823
:10155000C1C080F8C0700EE002681968D1610AE06D
:1015600002681968516206E002681968916202E037
:1015700002681968D16290F8C110072948D080F834
:10158000C19080F8C0700020D7E7196835E04FF0AF
:10159000A408D0F800C008EBC1111A684CF801206B
:1015A0005968002901680A5922F440522ED00A5184
:1015B00001680A59D3F804C042EA0C0218E019681D
:1015C00021E04FF0AC08D0F800C008EBC1111A6858
:1015D0004CF801205968002901680A5922F4404258
:1015E00014D00A5101680A59D3F804C042EA8C02A7
:1015F0000A515968514503D1996802689151BAE777
:101600005945B8D1996802685151B4E70A51B2E717
:10161000012092E710B590F8C020012A0ED00122D7
:1016200000F8C02F0223437050F8C03C1C680C43E4
:101630001C60427000210170084610BD022010BDE0
:1016400070B5044690F8C100022811D094F8C0008B
:1016500001280ED0012584F8C050022084F8C10072
:10166000204601F098F984F8C150002084F8C000A9
:1016700070BD022070BD10B590F8C020012A10D0B6
:10168000012200F8C02F0223437050F8C03CD3F869
:1016900094430C43C3F89443427000210170084600
:1016A00010BD022010BD10B590F8C020012A10D046
:1016B000012200F8C02F0223437050F8C03CD3F839
:1016C00098430C43C3F898434270002101700846C8
:1016D00010BD022010BD2DE9F041054690F8C10073
:1016E00014460E46022825D095F8C000012823D0C4
:1016F000012785F8C070022085F8C100052E1DD095
:10170000284601F0AFF9C6EBC60005EB8000216862
:10171000016261684162A1688162E168C162216918
:1017200001633146284601F009F985F8C1700020AF
:1017300085F8C000BDE8F0810220FBE72868016859
:10174000D0F8A02321F020036169194321F400633C
:10175000A169194321F48063E169194321F0C06351
:10176000216A194321F00063616A1943A36A21F0D9
:10177000404141EA830121F00053216B194322F4D7
:101780008033E26A01601A432868C0F8A023BAE7F0
:1017900090F84120202A24D190F84020012A20D01E
:1017A000012280F84020242280F84120026813683A
:1017B00023F0010313600268136823F4805313605D
:1017C000026813680B43136001680A6842F0010263
:1017D0000A60202180F84110002180F8401008465E
:1017E00070470220704790F84120202A22D190F8BB
:1017F0004020012A1ED0012280F84020242280F8B7
:1018000041200268136823F0010313600268136823
:1018100023F4706343EA0121116001680A6842F011
:1018200001020A60202180F84110002180F8401058
:10183000084670470220704770B5040004D094F841
:101840004100002510B106E0012070BD84F8405031
:10185000204600F0F9F8242084F84100206801684F
:1018600021F0010101606068216820F0706008616A
:101870002068816821F400418160E0680128A06847
:1018800007D040F4044021688860E068022803D053
:1018900006E040F40040F6E721684FF4006048603D
:1018A00020684168114A114341602068C16821F4F1
:1018B0000041C160D4E904010843A16940EA012064
:1018C0002168C860D4E907010843216808602068DE
:1018D000016841F0010101606564202084F8410045
:1018E000256384F84250002070BD00000080000293
:1018F0002DE9FF4F83B00446DDE9108790F84100E1
:10190000DDF848909A469346202871D15FEA080096
:1019100014D09FB194F84000012869D0012084F8C8
:101920004000FFF7F1FB0646012200901923D10386
:10193000204601F0D5F900286ED103E04FF4007085
:10194000606469E0212084F84100402084F842006E
:1019500000256564C4F8248067856563CDE9009639
:1019600053465A462046049901F072F910B184F8A2
:10197000405051E0608DFF274FF080784FF0007AA3
:10198000FF2804D927853A464346009505E0608D37
:101990002085009594F8282053462046049901F0AC
:1019A00089F932464946204601F0ECF9A0BB606A4D
:1019B000216800788862606A401C6062608D401E09
:1019C0006085208D401E80B22085618DD9B1D0B94F
:1019D0004B46002280212046009601F081F9D8B9BB
:1019E000608DFF2805D927853A464346009506E0D5
:1019F00026E0608D2085009594F8282053462046E7
:101A0000049901F057F9608D0028CAD13246494641
:101A1000204601F091F918B1012007B0BDE8F08F20
:101A200020682021C16120684268064B1A4042604C
:101A300084F8411084F8425084F840500020ECE7CC
:101A40000220EAE700E800FE10B586B00446142143
:101A50006846FEF7FDFB1349206888421FD1124CEF
:101A6000606940F4802060616069694600F480200C
:101A700005904FF4407000901220019001200290D8
:101A800003200390042004900848FFF761FAE069FE
:101A900040F40010E061E06900F40010059006B029
:101AA00010BD000000540040001002400004004837
:101AB000024881680278114481607047A8000020C4
:101AC000074810B5016841F010010160032000F0E3
:101AD0006DF8002000F006F800F024F8002010BD9A
:101AE0000020024070B50D4D04464FF47A712878FD
:101AF000B1FBF0F00A490968B1FBF0F000F0EAFC34
:101B000048B9102C07D200222146501E00F02EF8B2
:101B100000206C6070BD012070BD0000A800002096
:101B2000B4000020094808B5816941F001018161D4
:101B3000816901F001010091C16941F08051C161E9
:101B4000C06900F08050009008BD00000010024005
:101B5000002809DB00F01F020121914040098000AC
:101B600000F1E020C0F8001170470000F0B40E4B07
:101B70001B680C46C3F30223C3F10705042D00D9EB
:101B80000425191D072901D2002300E0DB1E0126D0
:101B900006FA05F1491E214099409E40761E1640E6
:101BA0003143F0BC02F048BA0CED00E0064900F009
:101BB000070208684FF6FF03184040EA0220034A74
:101BC00010430860704700000CED00E00000FA05CB
:101BD0002DE9F84F0446006800265C4DC0036ED521
:101BE000E869C00008D4E86940F08050E861E8691D
:101BF000012600F08050009055480168C90512D4B4
:101C00000168804641F480710160FFF77DFA074664
:101C100005E000BFFFF778FAC01B642835D8D8F874
:101C20000000C005F6D5286A10F4407053D0A18892
:101C300001F4407181424ED0286A4FF4803191FA0C
:101C4000A1F2B2FA82F29700424A4FF0010817441B
:101C500020F44070C7F8008491FAA1F1B1FA81F143
:101C600002EB81010023C1F800342862C00732D0A2
:101C7000FFF74AFA074641F2883A4FF0020907E0B7
:101C8000FFF742FAC11B514502D90320BDE8F88F86
:101C900099FAA9F1B1FA81F141F040014846B8EB57
:101CA000511F01D129680CE090FAA0F1B1FA81F13D
:101CB00041F04001B0EB511F02D1296A01E015E06B
:101CC000696A99FAA9F0B0FA80F000F01F0008FAEA
:101CD00000F21142D4D0286A616820F440700843B1
:101CE00028621EB1E86920F08050E8612078C007C2
:101CF00005D0286BA16820F00300084328632078F2
:101D0000800605D5286BE16820F0100008432863A1
:101D10002078000605D5E86A216920F4F8700843A8
:101D2000E8622088C00405D5286B616920F48070C2
:101D3000084328632088400405D5286BA16920F456
:101D40008050084328630020A0E7000000100240F4
:101D500000700040000042422DE9F0470F460500A8
:101D600069D04A4E306800F00700B84209D23068A6
:101D700020F0070038433060306800F00700B842B8
:101D800059D12878424C800705D56068A96820F0B1
:101D9000F000084360602878C0073DD069680120E2
:101DA00001290DD0022923D05FF0020393FAA3F298
:101DB000B2FA82F242F02002520904D0226803E013
:101DC0004FF40033F2E7626A93FAA3F3B3FA83F3B2
:101DD00003F01F03984002422DD0606820F00300FA
:101DE00008436060FFF790F9804641F288390CE0C3
:101DF0004FF00073DAE700BFFFF786F9A0EB0801A8
:101E0000494502D90320BDE8F0876068696800F0A1
:101E10000C00B0EB810FEFD1306800F00700B84242
:101E20000BD9306820F0070038433060306800F08C
:101E30000700B84201D00120E5E72878400705D522
:101E40006068E96820F4E060084360602878000773
:101E500006D56068296920F4605040EAC1006060DE
:101E600000F01EF86168F02292FAA2F201F0F0018F
:101E7000B2FA82F2D140074A515CC8400649086074
:101E800006480068FFF72EFE0020BCE70020024055
:101E9000001002404C490008B4000020AC000020B3
:101EA000164A10B55168164801F00C03042B20D0D7
:101EB000082B1ED14FF4701494FAA4F401F470139B
:101EC000B4FA84F4E3400F4CD26AE45C0F2393FA33
:101ED000A3F302F00F02B3FA83F3DA40094B103395
:101EE000C9039A5C06D500231946FEF769F9A0FBE1
:101EF000040110BD0448A4FB000110BD0010024005
:101F000000127A002C49000800093D002DE9F84F25
:101F1000050071D02878FC4EC0074FF0010425D091
:101F200070686704C0F38100012807D07068C0F3AF
:101F3000810002281BD17068C00318D597FAA7F05A
:101F4000B0FA80F040F02000400901D0306800E095
:101F5000706A97FAA7F1B1FA81F101F01F0104FA52
:101F600001F1084265D068680028D2D061E0686855
:101F7000B0F5803F0BD010B1B0F5A02F17D030686E
:101F800020F480303060306820F4802002E0306837
:101F900040F480303060F06AA96820F00F000843F8
:101FA000F062686820B3FFF7AFF880460AE0306857
:101FB00040F480203060EAE7FFF7A6F8A0EB0800C5
:101FC000642871D897FAA7F0B0FA80F040F02000AA
:101FD000400901D0306800E0706A97FAA7F1B1FAC1
:101FE00081F101F01F0104FA01F10842E4D020E080
:101FF000FFF78AF8804607E0C2E000BFFFF784F8E9
:10200000A0EB08006428DCD897FAA7F0B0FA80F0BB
:1020100040F02000400901D0306800E0706A97FA73
:10202000A7F1B1FA81F101F01F0104FA01F10842B0
:10203000E4D12878DFF8D48280074FF0000A4FF00F
:10204000020730D570684FF0F80B10F00C0F07D076
:102050007068C0F38100022827D17068C00324D4BF
:1020600097FAA7F0B0FA80F040F02000400901D0C4
:10207000306800E0706A97FAA7F1B1FA81F101F0D7
:102080001F0104FA01F1084202D02869012877D122
:1020900030689BFAABF220F0F8016869B2FA82F27C
:1020A0009040014331605AE064E1286988B394FAB2
:1020B000A4F0B0FA80F048F82040FFF725F88146F8
:1020C00006E000BFFFF720F8A0EB090002289AD82D
:1020D00097FAA7F0B0FA80F040F02000400901D054
:1020E000306800E0706A97FAA7F1B1FA81F101F067
:1020F0001F0104FA01F10842E4D030689BFAABF208
:102100006969B2FA82F220F0F80091400843306029
:1021100025E0FFE794FAA4F0B0FA80F048F820A098
:10212000FEF7F2FF814605E0FEF7EEFFA0EB0900A7
:102130000228CCD897FAA7F0B0FA80F040F020003F
:10214000400901D0306800E0706A97FAA7F1B1FA4F
:1021500081F101F01F0104FA01F10842E4D128786D
:1021600000076CD5A869A8B394FAA4F0B0FA80F07F
:1021700008EB8000C0F88044FEF7C6FF814607E008
:10218000A4E100BFFEF7C0FFA0EB090002289ED823
:1021900097FAA7F0B0FA80F040F06000B4EB501F5F
:1021A00001D130680BE097FAA7F0B0FA80F040F068
:1021B0006000B7EB501F01D1306A00E0706A97FAF7
:1021C000A7F1B1FA81F101F01F0104FA01F2104206
:1021D000D8D034E0FFE794FAA4F1B1FA81F108EB2A
:1021E0008101C1F880A4FEF78FFF814606E000BFA1
:1021F000FEF78AFFA0EB090002289AD897FAA7F009
:10220000B0FA80F040F06000B4EB501F01D13068AC
:102210000BE097FAA7F0B0FA80F040F06000B7EB5F
:10222000501F01D1306A00E0706A97FAA7F1B1FA45
:1022300081F101F01F0104FA01F21042D8D128788F
:10224000400768D5F0694FF00009C00009D4F06973
:1022500040F08050F061F0694FF0010900F08050CB
:1022600000902B480168C90512D4016841F48071BF
:102270000160FEF749FF834606E000BFFEF744FF1A
:10228000A0EB0B00642875D821480068C005F5D57F
:10229000E86801280AD008B1052811D0306A20F07A
:1022A00001003062306A20F0040002E0306A40F041
:1022B00001003062E86868B3FEF726FF83460DE050
:1022C000306A40F004003062F0E700BFFEF71CFF08
:1022D000A0EB0B0141F2883081424BD897FAA7F06E
:1022E000B0FA80F040F04000B4EB501F01D13068EC
:1022F00013E097FAA7F0B0FA80F040F04000B7EB97
:10230000501F09D1306A08E000100240000042422C
:10231000007000400CE040E0706A97FAA7F1B1FA53
:1023200081F101F01F0104FA01F21042CED02DE03C
:10233000FEF7EAFE834607E0FEF7E6FEA0EB0B01A0
:1023400041F28830814215D897FAA7F0B0FA80F0B0
:1023500040F04000B4EB501F01D130680CE097FA18
:10236000A7F0B0FA80F040F04000B7EB501F02D168
:10237000306A01E083E0706A97FAA7F1B1FA81F15F
:1023800001F01F0104FA01F21042D5D1B9F1000F9A
:1023900003D0F06920F08050F061E86980B3716883
:1023A000C1F38101022977D04FF080714F000228DC
:1023B000504609D091FAA1F1B1FA81F148F8210013
:1023C000FEF7A2FE05465DE0894691FAA1F1B1FA59
:1023D00081F1C24648F82100FEF796FE804605E0EE
:1023E000FEF792FEA0EB0800022848D897FAA7F063
:1023F000B0FA80F040F02000400902D0306801E0DF
:1024000066E0706A97FAA7F1B1FA81F101F01F0155
:1024100004FA01F10842E3D1D5E9081008437168D4
:1024200021F474110843706099FAA9F0B0FA80F0B1
:102430004AF82040FEF768FE054604E0FEF764FE19
:10244000401B02281BD897FAA7F0B0FA80F040F0A2
:102450002000400901D0306800E0706A97FAA7F1C7
:10246000B1FA81F101F01F0104FA01F10842E5D04F
:102470002EE000BFFEF748FE401B022802D90320D1
:10248000BDE8F88F97FAA7F0B0FA80F040F020008E
:10249000400902D0306801E00BE0706A97FAA7F1BA
:1024A000B1FA81F101F01F0104FA01F10842E1D112
:1024B0000EE00128E4D070682A6A00F4803191426D
:1024C00004D1696A00F47010884201D00120D7E776
:1024D0000020D5E710B5401EB0F1807F01D3012068
:1024E00010BD4FF0E02460610F21601701F0A4FDE2
:1024F0000020A06107202061002010BD70477047B8
:1025000070470000F0B590F83C20012A2CD001243F
:1025100080F83C40022280F83D2003685A689D689C
:10252000124EB34203D122F470074A683A4322F0B4
:1025300070070A683A435A600268B24208D0B2F1A2
:10254000804F05D00A4B9A4202D00A4B9A4204D1DE
:10255000896825F080031943916080F83D4000218F
:1025600080F83C100846F0BD0220F0BD002C014070
:10257000000400400040014010B5040003D094F86E
:102580003D0010B107E0012010BD002084F83C00A0
:10259000204600F023F8022084F83D00211D206829
:1025A00001F0A8FB012084F8480084F83E0084F87C
:1025B0003F0084F8400084F8410084F8420084F829
:1025C000430084F8440084F8450084F8460084F809
:1025D000470084F83D00002010BD000008B50068E9
:1025E0000B49884212D10B48C16941F00201C16117
:1025F000C069002200F00200009002211D20FFF7B8
:10260000B5FABDE808401D20FFF7A2BA08BD0000DA
:10261000000400400010024090F83D10012901D054
:1026200001207047022180F83D100168CA6842F01D
:102630000102CA6000680D49884208D0B0F1804F9D
:1026400005D00B49884202D00A49884207D18168E7
:10265000094A1140062906D0B1F5803F03D0016830
:1026600041F001010160002070470000002C014092
:1026700000040040004001400700010070B504461E
:1026800090F83C00012817D0012584F83C50022026
:1026900084F83D00226890682E4B184020F47F405B
:1026A00090600868502830D00DDC20284DD005DC23
:1026B00098B310283BD148E0022070BD302844D0A8
:1026C000402834D139E0602828D0702806D0B0F5F1
:1026D000805F2CD0B0F5005F29D10AE0CB68D1E94A
:1026E0000121206801F04AFB2068816841F07701F0
:1026F00009E0CB68D1E90121206801F03FFB2068A7
:10270000816841F48041816011E0CA6849682068AD
:1027100001F08CFB5021206807E016E0CA68496888
:10272000206801F094FB6021206801F031FB84F8FF
:102730003D50002084F83C0070BDCA68496820689C
:1027400001F074FB40212068EFE722680146104643
:10275000EBE7000088FFFEFF704770B50446006895
:1027600001694FF00005C943890715D4C168C94301
:10277000890711D4E91E0161012020772068806952
:102780008007204602D0FFF7E7FF04E000F0A7F83B
:10279000204600F0A5F8257720680169C94349075C
:1027A00017D4C168C943490713D46FF0040101610C
:1027B000022020772068806910F4407F204602D0F4
:1027C000FFF7CAFF04E000F08AF8204600F088F81E
:1027D000257720680169C943090716D4C168C94330
:1027E000090712D46FF008010161042020772068E6
:1027F000C0698007204602D0FFF7AEFF04E000F07A
:102800006EF8204600F06CF8257720680169C9430E
:10281000C90617D4C168C943C90613D46FF01001A3
:102820000161082020772068C06910F4407F2046AD
:1028300002D0FFF791FF04E000F051F8204600F0CD
:102840004FF8257720680169C943C90708D1C168D5
:10285000C943C90704D1891E0161204600F041F82F
:1028600020680169C943090609D4C168C94309063A
:1028700005D46FF0800101612046FFF740FE20681B
:102880000169C943C90509D4C168C943090605D40A
:102890006FF4807101612046FFF730FE2068016906
:1028A000C943490609D4C168C943490605D46FF034
:1028B00040010161204600F040F820680169C943E9
:1028C00089060BD4C168C943890607D46FF020017B
:1028D00001612046BDE87040FFF712BE70BD704731
:1028E0007047704770B5044690F83C00012812D03C
:1028F000012584F83C50022084F83D00204601F078
:102900004FFA01004FF0000007D084F83D5084F8E2
:102910003C00012070BD022070BD2168CA6822F011
:102920004002CA602168CA6822F48042CA6084F802
:102930003D5084F83C00002070BD7047062911D23C
:10294000DFE801F00911171D23030068D0F8841394
:1029500041F0010104E00068D0F8841341F0020165
:10296000C0F8841370470068D0F8841341F0040164
:10297000F6E70068D0F8841341F00801F0E700683A
:10298000D0F8841341F01001EAE70068D0F884130E
:1029900041F02001E4E7F0B50024E425076805EBE9
:1029A000C11657F806C0B82505EBC1157D59202A78
:1029B00027D00CDC042A15D004DC012A12D0022A0C
:1029C0002BD11EE0082A1CD0102A26D10AE0402A6A
:1029D00008D0802A15D0B2F5807F03D0B2F5007FF1
:1029E0001BD10EE04FF0BC0E0EEBC11E5A6847F82B
:1029F0000E204FF0C00E07680EEBC1119A687A5096
:102A00000BE0C42404EBC1145A683A51C827046887
:102A100007EBC1119A6862501024FE21A1401A6888
:102A20002CEA010CA240D96842EA0C02A1401143F1
:102A30001A69D3F814C01746A2400A430CFA04FCE2
:102A400099694CEA020CA14041EA0C01082F06D119
:102A5000AA0504D4AA0102D4DA69A240114300688D
:102A60008151F0BD2DE9F04F8024036804EBC116BD
:102A70009C5924F070449C5103689A469D59E8245F
:102A800004EBC114A64653F80490E42404EBC114EB
:102A9000A3461C59D3F8A03325F0200755693D43C0
:102AA00025F4006795693D4325F48067D5693D436A
:102AB00025F0C067156A3D4325F00067556A3D4320
:102AC00025F07047956A3D43176B25F40035B7F143
:102AD000005F01D145F4003525F04007556BD2F871
:102AE00048802F4327F4802C176D47EA0C0727F006
:102AF000FC7748EA070892F8387029F01F0C07F0B5
:102B00001F0747EA0C0727F0004CD76B47EA0C0772
:102B100025B924F4807C146C44EA0C04D2F844C037
:102B2000BCF5606F02D0BCF5F05F01D1402D03D140
:102B300024F4F0544CEA0404D56C052921D2DFE8D2
:102B400001F003090F151B00D26A23F4003343EA96
:102B5000420316E0D26A23F4802343EA820310E0A2
:102B6000D26A23F4002343EAC2030AE0D26A23F4C0
:102B7000801343EA021304E0D26A23F4001343EA09
:102B800042134AF80680066846F80E70066846F852
:102B90000B40D424026804EBC11155500068C0F802
:102BA000A033BDE8F08FFEE701688A69D24392073F
:102BB00001D400228A6200688169C943C90703D031
:102BC000816941F001018161704700002DE9F04108
:102BD0000446006890460E468069C043C00633D460
:102BE0000025202720688069C043800615D5701C09
:102BF000F8D0FEF789FAA0EB0800B04201D8002E09
:102C0000F0D154F8440F40F0200044F804096770F4
:102C1000A57025700120BDE8F08121681020C861F1
:102C20002068C7612046FFF7BFFF54F8440B416896
:102C3000064A11404160206840F0040044F8200931
:102C40006777A5772577E5E70020E4E700E800FE51
:102C50002DE9F8430446164615489846DDE90897DD
:102C6000DAB2C3020090204600F024F83A46494602
:102C7000204600F087F8B8B9F5B2B8F1010F08D0D6
:102C80002168300A88623A464946204600F07AF8C0
:102C900050B9206885624B4600228021204600976B
:102CA00000F01EF8002800D00120BDE8F8830000E5
:102CB00000200080F0B50568059C68684FF48066C8
:102CC000064FC1F3090106EA545641EA02413E4368
:102CD0001943B043214308436860F0BDFF63FF031D
:102CE0002DE9F0411D4617460E460446DDF81880D2
:102CF00008E0681C06D0FEF707FAA0EB0800A8421F
:102D00000BD855B12068806936EA000012D0002047
:102D1000B842EED00020BDE8F08154F8440F40F0F6
:102D2000200044F80409202060700020A07020706A
:102D30000120F0E70120EBE770B516460D4604468A
:102D40000DE0324629462046FFF740FF08B101203A
:102D500070BDFEF7D9F9801BA84207D835B12068AD
:102D60008069C0438006ECD4002070BD54F8440F45
:102D700040F0200044F80409202060700020A0707A
:102D80002070E4E770B516460D4604460FE0324663
:102D900029462046FFF71AFF08B1012070BD681CC4
:102DA00005D0FEF7B1F9801BA84207D835B12068DD
:102DB0008069C0438007EAD4002070BD54F8440FF6
:102DC00040F0200044F80409202060700020A0702A
:102DD0002070E2E710B51348FDF7F1FD1249A1F1AB
:102DE00048028862936BC418A4EB232393631A12DE
:102DF000CA6241100C483030426813460A328A4297
:102E000001DA426005E00A3B8B4201DD436000E0ED
:102E100041604168B1F5697F02DB40F2A331416056
:102E200010BD000014010020480000202DE9F041F1
:102E3000DFF8808008214046FEF75CF91E4D01272F
:102E40001E4C0026D0B12E8310214046FEF752F9C9
:102E500008B36E83207A00282AD12088022801D066
:102E6000032825D12780E67103211548FEF71BFCB6
:102E7000BDE8F0410C211248FEF715BC288B401C20
:102E800080B228831E28DFD92E83207A08B12672CB
:102E9000DAE72772D8E7688B401C80B268831E2867
:102EA000D8D96E83607A08B16672D3E76772D1E7CA
:102EB000BDE8F0810004004800000020B8000020B8
:102EC000A80100201B4810B500881B4C05282FD2F4
:102ED000DFE800F003030A111D000122114620461D
:102EE000FEF70DF9012218E0012211462046FEF7F7
:102EF00006F9012205E0012211462046FEF7FFF8FF
:102F0000002202212046FEF7FAF800220AE0002201
:102F100001212046FEF7F3F8002202212046FEF7A9
:102F2000EEF801222046BDE810400421FEF7E7B884
:102F300010BD0000B80000200004004870B58AB041
:102F4000002406940794182168460894FDF780F938
:102F50002A484FF0A041012501604FF4403105613E
:102F6000C0E90114447680F82040A902C162042619
:102F7000C6614FF4E071C460816280F8305008216E
:102F8000416104764463FDF71DFD08B1FDF7FAFACF
:102F900006A91A480694FDF7F7FA08B1FDF7F2FA08
:102FA000009501950225CDE9025404946946134821
:102FB0000594FDF759FB08B1FDF7E4FA0095694661
:102FC0000E480195FDF750FB08B1FDF7DBFA032031
:102FD0000090019069460948FDF746FB08B1FDF7EE
:102FE000D1FA0096694605480196FDF73DFB002899
:102FF00001D0FDF7C7FA0AB070BD0000C400002080
:1030000030B587B018216846FDF722F917481649F0
:10301000002401604FF44031C0E90114012504612E
:10302000457680F82040C0E90A54C561C46080F844
:1030300030400421416104764463FDF7C3FC08B1CC
:10304000FDF7A0FA0320CDE9020400950195049450
:10305000694606480594FDF707FB002801D0FDF7F7
:1030600091FA07B030BD00000001005014010020AB
:10307000054808B5416941F001014161406900F02E
:103080000100009008BD00000010024030B587B07C
:1030900014216846FDF7DCF81648416941F4003117
:1030A0004161416901F400310591416941F4802198
:1030B00041614069104D00F48020059000220721F5
:1030C0002846FEF71CF807200124CDE90004032060
:1030D000CDE9024069462846FDF73AFF18200090E6
:1030E0000020CDE9010469462846FDF731FF07B00D
:1030F00030BD00000010024000040048F0B5AFB041
:1031000000242D942E9426942794289454216846C4
:103110002994FDF79DF82A942B9424211DA82C9422
:10312000FDF796F8202115A8FDF792F870486F4931
:10313000C0E900148460FEF7C3F808B1FDF722FA75
:103140000C216B48FEF745F808B1FDF71BFA0A2180
:103150006748FEF767F908B1FDF714FA4FF48030BD
:103160002D9040112E902DAA01216148FDF7D2FF2C
:1031700008B1FDF707FA26AA4FF4205001250826CA
:1031800082E8710000215A48FEF76DF908B1FDF799
:10319000F9F91020CDE900040294CDE90345C005FA
:1031A000CDE9084005948000069407940A94CDE97F
:1031B0000B4087004015CDE90E47CDE910040D9472
:1031C000129413946A46002149481494FEF783FA36
:1031D00008B1FDF7D7F9009402946A4601214448EA
:1031E000CDE90345FEF777FA08B1FDF7CBF941F2D7
:1031F00088302A902AAB012200213D48FEF770F961
:1032000008B1FDF7BFF940F6C4102A902AAB04229A
:1032100000213748FEF764F908B1FDF7B3F9B4208F
:10322000CDE91D404FF40041CDE91F41491022AACC
:10323000219182E89100000725901DAA00212C48C9
:10324000FDF7F8FF08B1FDF79DF91DAA01212848F7
:10325000FDF7F0FF08B1FDF795F90420CDE9154021
:10326000CDE9176419941A941B9415AB012200211F
:103270001F481C94FEF7E4F908B1FDF783F915AB7C
:10328000042201211A48FEF7DBF908B1FDF77AF9AB
:10329000169415AB0222002115481794FEF7D0F9B9
:1032A00008B1FDF76FF915AB082201211048FEF7B0
:1032B000C7F908B1FDF766F926AA01210C48279441
:1032C000FEF7D1F808B1FDF75DF942F2283001228E
:1032D0002A902AAB11460648FEF702F908B1FDF71D
:1032E00051F90348FEF768F82FB0F0BD00740140B3
:1032F000A8010020134810B511490160124941602E
:1033000000210122C0E90212016141618161C161B4
:103310000162FEF791FA08B1FDF734F9002109487E
:10332000FEF736FA08B1FDF72DF900210548FEF742
:103330005AFA002803D0BDE81040FDF723B910BDAC
:1033400000540040840200200E09002010B500F057
:10335000F7F900F0CFF9022319A20021192000F09B
:103360006BFA022319A21946002000F065FA022325
:1033700018A20421002000F05FFA022317A2042102
:10338000442000F059FA022315A204215F2000F026
:1033900053FA022313A20621002000F04DFA022363
:1033A0000EA20621442000F047FA02230FA20621B4
:1033B0005F2000F041FABDE8104000F01EBA0000A6
:1033C0004255434B2D424F4F535400005374617488
:1033D000653A0000566F75743A0000002E00000038
:1033E00056000000496F75743A000000410000006B
:1033F00010B58CB0002405940694079414216846F7
:103400000894FCF725FF1A4809940A9417490B946D
:1034100001602021C0E9011442F21071C0E90314D7
:103420008461FFF7A9F808B1FDF7ACF84FF48050BC
:10343000059005A90E48FFF721F908B1FDF7A2F89C
:10344000009469460A480194FFF74CFA08B1FDF769
:1034500099F8099409A906480B94FFF753F8002836
:1034600001D0FDF78FF80CB010BD00000004004043
:10347000D0020020FEE7FEE72DE9F041664941F663
:10348000902300200A6949685A4340F6980359433B
:1034900012134FF47A73B2FBF3F4E5B20446091346
:1034A00065F30704A8466FF07C0615FB06F602EBF1
:1034B000C6076426B7FBF6F7FFB267F30F246FF079
:1034C0007C0C15FB0CF502EBC5026FF0180517FB21
:1034D00005F502EB850C0A22BCFBF2F7B1FBF3F316
:1034E0007D4205EB850567F317440CEB450565F355
:1034F0001F642546DBB263F307006FF07C0413FB07
:1035000004F401EBC404B4FBF6F4E6B2044666F33B
:103510000F246FF07C0013FB00F001EBC0006FF094
:10352000180116FB01F100EB8101B1FBF2F060F331
:103530001744404200EB8000374E01EB4000374F0C
:10354000483E60F31F64B879B18B884217D0B083CE
:1035500030B1012807D0022808D003280FD108E095
:1035600002232FA207E0022330A204E0022332A2AA
:1035700001E0022333A20021192000F05DF9388810
:10358000F18B884219D0F083052816D2DFE800F0CD
:103590000306090C0F0002232DA20AE002232EA22B
:1035A00007E002232EA204E002232FA201E002235F
:1035B0002FA20221372000F03FF942460421322099
:1035C00000F05AF8C5F3072204213C2000F054F81B
:1035D000C5F3074204214B2000F04EF82A0E0421C7
:1035E000552000F049F8E2B20621322000F044F8FC
:1035F000C4F3072206213C2000F03EF8C4F3074242
:1036000006214B2000F038F8220EBDE8F0410621DB
:10361000552000F031B8000048000020B80000201C
:103620004D4F44453A2A4E412A2000004D4F444513
:103630003A4255434B2000004D4F44453A424F4FCC
:10364000535400004D4F44453A4D49582000000066
:10365000496E69742020000057616974696E6700C3
:10366000526973696E67000052756E6E696E67000D
:103670004572726F722020000A2A25D2DFE802F01C
:1036800005080B0E1114171A1D2002230FA219E0B2
:1036900002230FA216E002230EA213E002230EA2C1
:1036A00010E002230DA20DE002230DA20AE0022386
:1036B0000CA207E002230CA204E002230BA201E00B
:1036C00002230BA200F0B8B87047000030000000E1
:1036D0003100000032000000330000003400000020
:1036E0003500000036000000370000003800000000
:1036F0003900000010B5002000F006F8BDE81040C9
:103700006420FDF713BC000070B506465FF00004AE
:1037100004F1B000C0B200F06BFC002000F068FCC7
:10372000102000F065FC0025304600F073FC6D1C95
:10373000EDB2802DF8D3641CE4B2082CE8D370BD40
:1037400010B5C820FDF7F2FBAE2000F051FC2020A0
:1037500000F04EFC102000F04BFCB02000F048FCC4
:10376000C82000F045FC002000F042FC102000F0D2
:103770003FFC402000F03CFC812000F039FCFF20A1
:1037800000F036FCA12000F033FCA62000F030FC55
:10379000A82000F02DFC3F2000F02AFCA42000F01F
:1037A00027FCD32000F024FC002000F021FCD520D1
:1037B00000F01EFCF02000F01BFCD92000F018FCEB
:1037C000222000F015FCDA2000F012FC122000F09C
:1037D0000FFCDB2000F00CFC202000F009FC8D2009
:1037E00000F006FC142000F003FCAF2000F000FC09
:1037F000BDE810406420FDF799BB10B58D2000F0A6
:10380000F7FB142000F0F4FBBDE81040AF2000F0FF
:10381000EFBB10B50446B031C8B200F0E9FB102090
:1038200040EA141000F0E4FB04F00F00BDE8104083
:1038300040F0010000F0DCBB2DE9F0470025914687
:103840008A460446012B22D0DFF8BC80022B24D10B
:1038500055E02038C7B27E2C04D90AF101000024BB
:1038600000F0FF0A51462046FFF7D3FF07EB470061
:10387000002608EB4007B85D00F0CCFB761CF6B2E2
:10388000062EF8D3A41D6D1CE4B2EDB201E0DFF802
:103890007C8019F805000028DBD1BDE8F0872038CE
:1038A000C7B2782C04D90AF10100002400F0FF0A05
:1038B00051462046FFF7ADFF5FF0000606EB07110B
:1038C00018F8010000F0A6FB761CF6B2082EF5D31E
:1038D0000AF10100C1B22046FFF79BFF5FF000062E
:1038E00006EB071101EB0800007A00F093FB761C51
:1038F000F6B2082EF4D308346D1CE4B2EDB219F818
:1039000005000028CBD1C8E73C430008144100085B
:103910007047704770B51E4840F274521D4C0168E4
:103920000025914212DDC068B0F5907F0EDCE57194
:1039300003211948FDF7B7FE0C211748FDF7B3FE28
:10394000A08840F02000A08004202080A28890065B
:103950001DD50F484838C16B491CC163B1F5C87FFC
:1039600015DDC56341780A290CD90B214170E57139
:1039700003210948FDF797FEBDE870400C21064879
:10398000FDF791BE491C417022F02000A08070BD5F
:1039900048000020B8000020A80100200848008846
:1039A00005280CD2DFE800F00305070B090000F042
:1039B0001FB800F0ABB800F025B800F003B87047AE
:1039C000B800002010B5084C00200321E071074822
:1039D000FDF769FE0C210548FDF765FEA08800286B
:1039E00001D10120208010BDB8000020A8010020D6
:1039F00010B500F03FFA02490120088010BD000018
:103A0000B80000202DE9F0473B4D3C4FDFF8F08037
:103A100029783C484FF0010A4FF05009002605F183
:103A2000780439B1012919D0022915D18146C0790C
:103A300060B336E0C67103213348FDF734FE0C2134
:103A40003148FDF730FEA4F80C90A4F80E903E60CB
:103A5000C8F8006085F800A0BDE8F087A888401C81
:103A600080B2A8801428F7D9AE80A4F81090A4F8EA
:103A70000C90A4F81290A4F80E903E60C8F8006074
:103A800060688010606002202870E5E73E600321D6
:103A90001D48C8F80060FDF7EEFD0C211A48FDF73F
:103AA000EAFD89F807A0EA88521CEA80288902EB1F
:103AB0008202401C2881A38900EB80001A4412B2C4
:103AC000A281E389184403B240F6E160E3818242B7
:103AD00000DDA08140F66622934200DDE281B4F968
:103AE0000C308342B8D1B4F90E009042B4D1032017
:103AF000A9F800002E70AFE700000020940000201D
:103B000098000020B8000020A801002070B5184ED1
:103B1000184C0025F57160884FF48073401C80B20A
:103B20006080984211D9638003211348FDF7A3FDFB
:103B3000B088002808D1307A012805D16580256336
:103B4000022065633080257070BD0A49256B4031C5
:103B500098424A882A442263C988656B2944616374
:103B6000F2D10448120A4830090AC261816070BD6E
:103B7000B800002000000020A801002070B52348F4
:103B8000224D40F25D410068214C0026483D8842AC
:103B900002DD208803281ED06E81A088C10634D59E
:103BA000A989491C89B2A981B1F5C87F2DD9AE81F7
:103BB000E989491C89B2E9810A2923D90B20E881C6
:103BC000E67103211348FDF76EFDBDE870400C213E
:103BD0001048FDF768BD6889401C80B268810A28DA
:103BE000DBD96E81E67103210A48FDF75CFD0C21EB
:103BF0000848FDF758FDA08840F01000A080042080
:103C00002080CAE720F01000A08070BD480000208E
:103C1000B8000020A8010020FDF74ABF30B597B0DA
:103C200028216846FCF714FB14210AA8FCF710FBB6
:103C30001C210FA8FCF70CFB022501200490009525
:103C40001020059000244FF46010CDE9084007953E
:103C50006846FEF75BF908B172B6FEE70F20CDE9C2
:103C60000A054FF48060CDE90C4002210AA80E94A9
:103C7000FEF772F808B172B6FEE744F220000F902A
:103C80004FF48050159012940FA8FDF7A1FF002863
:103C900001D072B6FEE717B030BD000002480168DF
:103CA00041F470010160704788ED00E010B50F48E5
:103CB000FEF753FD0E480188491C0180FCF7F4FA19
:103CC000FFF728FEFFF75AFF00F068F900F022F92D
:103CD00000F0F6F8FFF7AAF8FFF760FEFFF77AF8B2
:103CE000FCF722FCBDE81040FFF7ECB8D002002042
:103CF00090000020F0B502681B4B1C4F4FF0804C29
:103D0000984203D0604501D0B84203D122F070043C
:103D10004A682243164C174D174E984209D0604509
:103D200007D0B84205D0A04203D0A84201D0B0428B
:103D300003D122F44077CA683A434F6922F08002E7
:103D40003A4302608A68C2620A688262984205D079
:103D5000A04203D0A84201D0B04201D10969016359
:103D600001214161F0BD0000002C01400004004031
:103D700000400140004401400048014010B5846803
:103D800042EA032224F47F440A432243826010BDA6
:103D9000826822F070020A4342F007018160704796
:103DA00010B50468A26822F070034A681A431E4BDB
:103DB0001A400B681343A3604A6812F00F0F30D10A
:103DC0001211082A2DD2DFE802F02C2C2C2C0B210A
:103DD00027040B69D1E902210068FFF7CFFF20E03B
:103DE0000A68052A10D00268136A146A24F00104D4
:103DF000146202689469096924F0F00444EA01112C
:103E00009161006803620CE0012010BD0A698968B5
:103E1000006800F00BF804E00A698968006800F0A7
:103E200016F8002010BD0000F8FFFEFF10B5036A71
:103E3000046A24F001040462846924F0F00444EA72
:103E4000021423F00A020A438461026210BD10B515
:103E5000036A23F0100303628369046A23F4704346
:103E600043EA023224F0A00343EA011182610162B5
:103E700010BDFEE770B50D4D00240321EC710C4818
:103E8000FDF711FC0C210A48FDF70DFC0948AC8038
:103E90004FF4006141605021018281814182C181E2
:103EA000054804600548046070BD0000B8000020AB
:103EB000A801002078000020940000209800002035
:103EC000114810B51049026A40F6C4330020483941
:103ED0009A4217DDCA8A521C92B2CA82022A10D9AB
:103EE0000A4CC8820321E0710948FDF7DCFB0C2174
:103EF0000748FDF7D8FBA08840F00200A08004200E
:103F0000208010BDC88210BD48000020B8000020ED
:103F1000A80100202DE9F0411D4F40F2AE210026FE
:103F2000386A1C4DA7F14804884219DA2888B8B1CC
:103F3000608A401C80B26082022812D96682A68202
:103F4000EE7103211448FDF7AEFB0C211248FDF77A
:103F5000AAFBA88840F00100A8800420288000E087
:103F60006682A888C10710D0396AB1F5477F0CDB9B
:103F7000A18A491C89B2A182C82904D9A682668275
:103F800020F00100A880BDE8F081A682FBE70000D8
:103F900048000020B8000020A8010020114810B5FA
:103FA0001049C26840F6C433002048399A4217DDF0
:103FB0000A8A521C92B20A82022A10D90A4C08823A
:103FC0000321E0710948FDF76EFB0C210748FDF75E
:103FD0006AFBA08840F00800A0800420208010BD6B
:103FE000088210BD48000020B8000020A801002071
:103FF00001B584B00121642204A88DE807000B46B6
:10400000002278210248FDF773FC05B000BD0000D6
:104010008402002001B584B00121642204A88DE847
:1040200007000B46402278210248FDF761FC05B0ED
:1040300000BD0000840200200907090E002804DBEF
:1040400000F1E02080F80014704700F00F0000F14C
:10405000E02080F8141D704702E008C8121F08C154
:10406000002AFAD170477047002001E001C1121FF9
:10407000002AFBD170470000FDF722FDFFF7CEFDBF
:10408000FFF704F8FEF7F4FFFFF738F8FEF756FFE6
:10409000FEF7B6FFFFF72EF9FFF7AAF9FFF756F97B
:1040A0001648FEF7B9FA042215491648FCF75AFEDD
:1040B0001548FCF7EBFD03211448FDF7DCFA0C2151
:1040C0001248FDF7D8FA4FF400311048FDF7A2FA74
:1040D0004FF480210D48FDF79DFA0C48006850F818
:1040E0008C1F41F010010160094C002520883C28FC
:1040F000FCD92580FFF7C0F9F8E70000D0020020C6
:1041000040000020C400002014010020A80100206D
:10411000900000200000000000000000002F0000C0
:1041200000000700070000147F147F1400242A7F7A
:104130002A120062640813230036495522500000F9
:104140000503000000001C224100000041221C0069
:104150000014083E08140008083E0808000000A0EB
:1041600060000008080808080000606000000020E7
:1041700010080402003E5149453E0000427F4000C5
:10418000004261514946002141454B31001814124B
:104190007F10002745454539003C4A494930000118
:1041A0007109050300364949493600064949291E67
:1041B00000003636000000005636000000081422C9
:1041C00041000014141414140000412214080002C9
:1041D0000151090600324959513E007C1211127CEE
:1041E000007F49494936003E41414122007F41411B
:1041F000221C007F49494941007F09090901003E0D
:104200004149497A007F0808087F0000417F41004A
:10421000002040413F01007F08142241007F4040C0
:104220004040007F020C027F007F0408107F003EA8
:104230004141413E007F09090906003E4151215E8E
:10424000007F091929460046494949310001017F8B
:104250000101003F4040403F001F2040201F003F21
:104260004038403F006314081463000708700807D3
:1042700000615149454300007F41410000552A55E6
:104280002A55000041417F00000402010204004061
:104290004040404000000102040000205454547883
:1042A000007F4844443800384444442000384444A3
:1042B000487F00385454541800087E090102001841
:1042C000A4A4A47C007F080404780000447D40007E
:1042D000004080847D00007F102844000000417F62
:1042E0004000007C04180478007C0804047800383E
:1042F0004444443800FC242424180018242418FCC6
:10430000007C0804040800485454542000043F442E
:104310004020003C4040207C001C2040201C003CF1
:104320004030403C004428102844001CA0A0A07C41
:10433000004464544C441414141414140000000079
:10434000000000000000000000000000000000F875
:1043500000000000000000333000000000100C06D8
:10436000100C0600000000000000000040C0784073
:10437000C0784000043F04043F040400007088FC3F
:1043800008300000001820FF211E0000F008F00097
:10439000E018000000211C031E211E0000F0088808
:1043A000700000001E2123241927211010160E0072
:1043B000000000000000000000000000000000E01D
:1043C0001804020000000007182040000002041832
:1043D000E00000000040201807000000404080F08E
:1043E000804040000202010F01020200000000F0C4
:1043F000000000000101011F010101000000000098
:104400000000000080B0700000000000000000000C
:104410000000000000010101010101010000000095
:10442000000000000030300000000000000000002C
:1044300080601804006018060100000000E0100809
:104440000810E000000F102020100F00001010F8DE
:10445000000000000020203F20200000007008081D
:10446000088870000030282422213000003008889D
:10447000884830000018202020110E000000C020C5
:1044800010F8000000070424243F240000F80888E6
:10449000880808000019212020110E0000E0108873
:1044A00088180000000F112020110E0000380808A5
:1044B000C83808000000003F0000000000708808B5
:1044C00008887000001C222121221C0000E0100836
:1044D0000810E0000000312222110F00000000C08F
:1044E000C00000000000003030000000000000802C
:1044F000000000000000806000000000000080401C
:104500002010080000010204081020004040404034
:104510004040400004040404040404000008102087
:1045200040800000002010080402010000704808CC
:104530000808F0000000003036010000C030C82834
:10454000E810E0000718272423140B000000C038EF
:10455000E0000000203C23020227382008F8888869
:1045600088700000203F202020110E00C030080875
:1045700008083800071820202010080008F808084C
:104580000810E000203F202020100F0008F8888845
:10459000E8081000203F20202320180008F8888811
:1045A000E8081000203F200003000000C030080889
:1045B0000838000007182020221E020008F8080012
:1045C0000008F808203F210101213F20000808F8D9
:1045D000080800000020203F2020000000000808FC
:1045E000F8080800C08080807F00000008F888C0BC
:1045F00028180800203F20012638200008F808006D
:1046000000000000203F20202020300008F8F800A3
:10461000F8F80800203F003F003F200008F830C0B5
:104620000008F808203F200007183F00E0100808A5
:104630000810E0000F10202020100F0008F80808D4
:104640000808F000203F210101010000E0100808E7
:104650000810E0000F18242438504F0008F888880C
:1046600088887000203F2000030C302000708808EC
:10467000080838000038202121221C00180808F8FA
:10468000080818000000203F2000000008F808007B
:104690000008F808001F202020201F00087888004C
:1046A00000C83808000007380E010000F80800F8BC
:1046B0000008F800033C0700073C03000818688066
:1046C0008068180820302C03032C30200838C800DC
:1046D000C83808000000203F20000000100808082B
:1046E000C83808002038262120201800000000FECD
:1046F000020202000000007F40404000000C30C079
:1047000000000000000000010638C00000020202A4
:10471000FE000000004040407F0000000000040256
:104720000202040000000000000000000000000081
:104730000000000080808080808080800002020471
:104740000000000000000000000000000000808069
:10475000808000000019242222223F2008F80080D7
:1047600080000000003F112020110E00000000809A
:1047700080800000000E1120202011000000008029
:104780008088F800000E112020103F20000080805B
:1047900080800000001F222222221300008080F06F
:1047A000888888180020203F20200000000080809A
:1047B00080808000006B94949493600008F80080DF
:1047C00080800000203F210000203F20008098983A
:1047D000000000000020203F20200000000000809A
:1047E0009898000000C08080807F000008F80000DA
:1047F00080808000203F24022D302000000808F82F
:10480000000000000020203F2020000080808080E9
:1048100080808000203F20003F20003F808000807B
:1048200080800000203F210000203F200000808089
:1048300080800000001F202020201F00808000803A
:104840008000000080FFA12020110E0000000080E9
:1048500080808000000E112020A0FF8080808000DA
:104860008080800020203F21200001000000808007
:10487000808080000033242424241900008080E0FC
:10488000808000000000001F2020000080800000C9
:1048900000808000001F202020103F2080808000AA
:1048A0000080808000010E300806010080800080BA
:1048B000008080800F300C030C300F0000808000DF
:1048C000808080000020312E0E312000808080000A
:1048D0000080808080818E701806010000808080BA
:1048E000808080000021302C222130000000000058
:1048F000807C020200000000003F404000000000F9
:10490000FF00000000000000FF0000000002027C29
:10491000800000000040403F000000000006010150
:10492000020204040000000000000000020304056D
:10493000060708090A0B0C0D0E0F101001020304E4
:1049400005060708090A0B0C0D0E0F1000000000E9
:104950000000000001020304060708097C49000862
:1049600000000020B800000058400008344A000849
:10497000B800002068060000684000080000000041
:104980000000000000000000000000000000000027
:1049900000000000000000000A000A000000000003
:1049A0000000000000000000000000000000000007
:1049B00000000000000000000000000000000000F7
:1049C00000000000000000000000000000080000DF
:1049D00000000000000000000000000000000000D7
:1049E00000080000000000000000000000000000BF
:1049F00000000000000000000000000000000000B7
:104A00005000000000000000000000000000000056
:104A10000000000000000000000000000000000096
:104A20000000000001000000100000000000000075
:044A300000127A00F6
:040000050800018965
:00000001FF
